:03000000020A6190
:0C0A6100787FE4F6D8FD758120020AA819
:0A0BEF003F065B4F666D7D077F6FC8
:0E0BE000C100C102C101020A0001020D0000A5
:080BCA001208CDC297120BD2F4
:0D0BD2007F647E00EF1F70011EEF4E70F774
:010BDF0022F3
:1008CD00E50975F00A84900BEF93F580C2A7120B22
:1008DD00D2D2A7E50975F00A84E5F093F580C2A69A
:1008ED00120BD2D2A63001057580808003E4F5800D
:1008FD00C2A6120BD2D2A6C287E50875F00A849063
:10090D000BEF93F580C2A5120BD2D2A5E50875F0B9
:10091D000A84E5F093F580C2A4120BD2D2A4AE10D6
:10092D00AF117C007D64120B4274EF2FF582740BB6
:10093D003EF583E493F580C2A3120BD2D2A3AE1081
:10094D00AF117C007D64120B427E007F0ACFCDCFAC
:10095D00CECCCE120B4274EF2FF582740B3EF58385
:10096D00E493F580C2A2120BD2D2A2AE10AF117CCD
:10097D00007D0A120B4274EF2DF582740B3CF5834A
:0C098D00E493F580C2A1120BD2D2A1228B
:1008000020B21B1208CD20B215120BCDD297C28E8A
:10081000C202B200A200928C1208CD30B2FA2000BF
:100820004420901D120BCAD297C3E50994637480CB
:1008300094805004050980037509631208CD309037
:10084000FA3091030208CC120BCAD297D3E509946F
:100850000074809480400415098003E4F5091208AF
:10086000CD3091FA2230000C309009209106750DA0
:1008700000750E01209029120BCAD297C3E511947E
:10088000E7E5109403500D74022511F511E43510BD
:10089000F51080067510037511E71208CD3090FA37
:1008A000209129120BCAD297C3E51194E7E5109461
:1008B00003500D74032511F511E43510F510800671
:0D08C0007510037511E71208CD3091FA2272
:10099900758911758AB0758C3C758BB0758D3C75F0
:1009A9000901E4F508D2AFD2A9D2ABC28CC28E75C7
:1009B90090FF75B0FF1208001208CDE50E640145DD
:1009C9000D70F2E50B6401450A7025E511641E45B9
:1009D90010600BD3E511941EE51094004012E4F564
:1009E90009750828F510F511050BE50B7002050AC4
:1009F900E50B6402450A7025E511641E4510600B7C
:100A0900D3E511941EE51094004012E4F509750828
:100A19001EF510F511050BE50B7002050AE50B64CF
:100A290003450A702AE51164144510600BD3E511DA
:100A39009414E51094004017750901E4F508F510C0
:100A4900F511F50A750B01C200120800300008E41F
:080A5900F50DF50E0209BE22A5
:03000B00020AEDF9
:100AED00C0E0C0D075D000C006C007758AB0758C47
:100AFD003CD28C050CAF0C7E00EF64147002C20169
:100B0D00EF641E4E7026F50CD201E508701CD3E57E
:100B1D0009940074809480400775083B1509800C7A
:100B2D00D202C200C28CD28E80021508D007D00628
:050B3D00D0D0D0E03231
:03001B00020B973E
:100B9700C0E0C0D075D000C006C007758BB0758D9A
:100BA7003CD28E050FAF0F7E00EF640A7002C2972A
:100BB700EF64144E7004F50FD297D007D006D0D04B
:030BC700D0E03249
:100A6D00020999E493A3F8E493A34003F68001F2FD
:100A7D0008DFF48029E493A3F85407240CC8C3338A
:100A8D00C4540F4420C8834004F456800146F6DF59
:100A9D00E4800B0102040810204080900BE0E47EFE
:100AAD00019360BCA3FF543F30E509541FFEE4934E
:100ABD00A360010ECF54C025E060A840B8E493A315
:100ACD00FAE493A3F8E493A3C8C582C8CAC583CA40
:100ADD00F0A3C8C582C8CAC583CADFE9DEE780BEF8
:010BEE000006
:100B4200BC000BBE0029EF8DF084FFADF022E4CC97
:100B5200F875F008EF2FFFEE33FEEC33FCEE9DEC60
:100B6200984005FCEE9DFE0FD5F0E9E4CEFD22EDA6
:100B7200F8F5F0EE8420D21CFEADF075F008EF2FF0
:100B8200FFED33FD4007985006D5F0F222C398FDE1
:050B92000FD5F0EA227E
:00000001FF
